{
  "contractName": "Voting",
  "abi": [
    {
      "inputs": [
        {
          "internalType": "string",
          "name": "_adminCode",
          "type": "string"
        },
        {
          "internalType": "string[]",
          "name": "_validCodes",
          "type": "string[]"
        }
      ],
      "stateMutability": "nonpayable",
      "type": "constructor"
    },
    {
      "inputs": [
        {
          "internalType": "uint256",
          "name": "",
          "type": "uint256"
        }
      ],
      "name": "candidates",
      "outputs": [
        {
          "internalType": "string",
          "name": "name",
          "type": "string"
        },
        {
          "internalType": "string",
          "name": "ipfsHash",
          "type": "string"
        },
        {
          "internalType": "uint256",
          "name": "voteCount",
          "type": "uint256"
        }
      ],
      "stateMutability": "view",
      "type": "function",
      "constant": true
    },
    {
      "inputs": [
        {
          "internalType": "string",
          "name": "",
          "type": "string"
        }
      ],
      "name": "usedCodes",
      "outputs": [
        {
          "internalType": "bool",
          "name": "",
          "type": "bool"
        }
      ],
      "stateMutability": "view",
      "type": "function",
      "constant": true
    },
    {
      "inputs": [
        {
          "internalType": "string",
          "name": "name",
          "type": "string"
        },
        {
          "internalType": "string",
          "name": "ipfsHash",
          "type": "string"
        }
      ],
      "name": "addCandidate",
      "outputs": [],
      "stateMutability": "nonpayable",
      "type": "function"
    },
    {
      "inputs": [
        {
          "internalType": "uint256",
          "name": "candidateId",
          "type": "uint256"
        },
        {
          "internalType": "string",
          "name": "code",
          "type": "string"
        }
      ],
      "name": "vote",
      "outputs": [],
      "stateMutability": "nonpayable",
      "type": "function"
    },
    {
      "inputs": [],
      "name": "getCandidates",
      "outputs": [
        {
          "components": [
            {
              "internalType": "string",
              "name": "name",
              "type": "string"
            },
            {
              "internalType": "string",
              "name": "ipfsHash",
              "type": "string"
            },
            {
              "internalType": "uint256",
              "name": "voteCount",
              "type": "uint256"
            }
          ],
          "internalType": "struct Voting.Candidate[]",
          "name": "",
          "type": "tuple[]"
        }
      ],
      "stateMutability": "view",
      "type": "function",
      "constant": true
    },
    {
      "inputs": [
        {
          "internalType": "string",
          "name": "code",
          "type": "string"
        }
      ],
      "name": "isCodeUsed",
      "outputs": [
        {
          "internalType": "bool",
          "name": "",
          "type": "bool"
        }
      ],
      "stateMutability": "view",
      "type": "function",
      "constant": true
    },
    {
      "inputs": [],
      "name": "getValidCodes",
      "outputs": [
        {
          "internalType": "string[]",
          "name": "",
          "type": "string[]"
        }
      ],
      "stateMutability": "view",
      "type": "function",
      "constant": true
    },
    {
      "inputs": [
        {
          "internalType": "string",
          "name": "code",
          "type": "string"
        }
      ],
      "name": "checkAdminCode",
      "outputs": [
        {
          "internalType": "bool",
          "name": "",
          "type": "bool"
        }
      ],
      "stateMutability": "view",
      "type": "function",
      "constant": true
    }
  ],
  "bytecode": "0x60806040523480156200001157600080fd5b50604051620017cc380380620017cc8339818101604052810190620000379190620002fa565b81600390805190602001906200004f92919062000071565b5080600190805190602001906200006892919062000102565b505050620004cd565b8280546200007f9062000439565b90600052602060002090601f016020900481019282620000a35760008555620000ef565b82601f10620000be57805160ff1916838001178555620000ef565b82800160010185558215620000ef579182015b82811115620000ee578251825591602001919060010190620000d1565b5b509050620000fe919062000169565b5090565b82805482825590600052602060002090810192821562000156579160200282015b82811115620001555782518290805190602001906200014492919062000071565b509160200191906001019062000123565b5b50905062000165919062000188565b5090565b5b80821115620001845760008160009055506001016200016a565b5090565b5b80821115620001ac5760008181620001a29190620001b0565b5060010162000189565b5090565b508054620001be9062000439565b6000825580601f10620001d25750620001f3565b601f016020900490600052602060002090810190620001f2919062000169565b5b50565b60006200020d6200020784620003a1565b6200036d565b9050808382526020820190508260005b85811015620002515781518501620002368882620002cd565b8452602084019350602083019250506001810190506200021d565b5050509392505050565b6000620002726200026c84620003d0565b6200036d565b9050828152602081018484840111156200028b57600080fd5b6200029884828562000403565b509392505050565b600082601f830112620002b257600080fd5b8151620002c4848260208601620001f6565b91505092915050565b600082601f830112620002df57600080fd5b8151620002f18482602086016200025b565b91505092915050565b600080604083850312156200030e57600080fd5b600083015167ffffffffffffffff8111156200032957600080fd5b6200033785828601620002cd565b925050602083015167ffffffffffffffff8111156200035557600080fd5b6200036385828601620002a0565b9150509250929050565b6000604051905081810181811067ffffffffffffffff821117156200039757620003966200049e565b5b8060405250919050565b600067ffffffffffffffff821115620003bf57620003be6200049e565b5b602082029050602081019050919050565b600067ffffffffffffffff821115620003ee57620003ed6200049e565b5b601f19601f8301169050602081019050919050565b60005b838110156200042357808201518184015260208101905062000406565b8381111562000433576000848401525b50505050565b600060028204905060018216806200045257607f821691505b602082108114156200046957620004686200046f565b5b50919050565b7f4e487b7100000000000000000000000000000000000000000000000000000000600052602260045260246000fd5b7f4e487b7100000000000000000000000000000000000000000000000000000000600052604160045260246000fd5b6112ef80620004dd6000396000f3fe608060405234801561001057600080fd5b50600436106100885760003560e01c80633477ee2e1161005b5780633477ee2e146101135780635498453d1461014557806374d3e5ef1461017557806382dfac651461019357610088565b806306a49fce1461008d57806317ed9c7c146100ab57806324108475146100db57806326541b56146100f7575b600080fd5b6100956101c3565b6040516100a29190610f2f565b60405180910390f35b6100c560048036038101906100c09190610a3d565b610350565b6040516100d29190610f51565b60405180910390f35b6100f560048036038101906100f09190610b13565b610386565b005b610111600480360381019061010c9190610a7e565b6105db565b005b61012d60048036038101906101289190610aea565b61066c565b60405161013c93929190610f6c565b60405180910390f35b61015f600480360381019061015a9190610a3d565b6107b6565b60405161016c9190610f51565b60405180910390f35b61017d6107eb565b60405161018a9190610f0d565b60405180910390f35b6101ad60048036038101906101a89190610a3d565b6108c4565b6040516101ba9190610f51565b60405180910390f35b60606000805480602002602001604051908101604052809291908181526020016000905b82821015610347578382906000526020600020906003020160405180606001604052908160008201805461021a90611189565b80601f016020809104026020016040519081016040528092919081815260200182805461024690611189565b80156102935780601f1061026857610100808354040283529160200191610293565b820191906000526020600020905b81548152906001019060200180831161027657829003601f168201915b505050505081526020016001820180546102ac90611189565b80601f01602080910402602001604051908101604052809291908181526020018280546102d890611189565b80156103255780601f106102fa57610100808354040283529160200191610325565b820191906000526020600020905b81548152906001019060200180831161030857829003601f168201915b50505050508152602001600282015481525050815260200190600101906101e7565b50505050905090565b6002818051602081018201805184825260208301602085012081835280955050505050506000915054906101000a900460ff1681565b60008054905082106103cd576040517f08c379a00000000000000000000000000000000000000000000000000000000081526004016103c490610fd1565b60405180910390fd5b6000805b60018054905081101561049157826040516020016103ef9190610edf565b604051602081830303815290604052805190602001206001828154811061043f577f4e487b7100000000000000000000000000000000000000000000000000000000600052603260045260246000fd5b906000526020600020016040516020016104599190610ef6565b60405160208183030381529060405280519060200120141561047e5760019150610491565b8080610489906111bb565b9150506103d1565b50806104d2576040517f08c379a00000000000000000000000000000000000000000000000000000000081526004016104c990610ff1565b60405180910390fd5b6002826040516104e29190610edf565b908152602001604051809103902060009054906101000a900460ff161561053e576040517f08c379a000000000000000000000000000000000000000000000000000000000815260040161053590610fb1565b60405180910390fd5b60016002836040516105509190610edf565b908152602001604051809103902060006101000a81548160ff021916908315150217905550600083815481106105af577f4e487b7100000000000000000000000000000000000000000000000000000000600052603260045260246000fd5b906000526020600020906003020160020160008154809291906105d1906111bb565b9190505550505050565b6000604051806060016040528084815260200183815260200160008152509080600181540180825580915050600190039060005260206000209060030201600090919091909150600082015181600001908051906020019061063e92919061091d565b50602082015181600101908051906020019061065b92919061091d565b506040820151816002015550505050565b6000818154811061067c57600080fd5b906000526020600020906003020160009150905080600001805461069f90611189565b80601f01602080910402602001604051908101604052809291908181526020018280546106cb90611189565b80156107185780601f106106ed57610100808354040283529160200191610718565b820191906000526020600020905b8154815290600101906020018083116106fb57829003601f168201915b50505050509080600101805461072d90611189565b80601f016020809104026020016040519081016040528092919081815260200182805461075990611189565b80156107a65780601f1061077b576101008083540402835291602001916107a6565b820191906000526020600020905b81548152906001019060200180831161078957829003601f168201915b5050505050908060020154905083565b60006002826040516107c89190610edf565b908152602001604051809103902060009054906101000a900460ff169050919050565b60606001805480602002602001604051908101604052809291908181526020016000905b828210156108bb57838290600052602060002001805461082e90611189565b80601f016020809104026020016040519081016040528092919081815260200182805461085a90611189565b80156108a75780601f1061087c576101008083540402835291602001916108a7565b820191906000526020600020905b81548152906001019060200180831161088a57829003601f168201915b50505050508152602001906001019061080f565b50505050905090565b600060036040516020016108d89190610ef6565b60405160208183030381529060405280519060200120826040516020016108ff9190610edf565b60405160208183030381529060405280519060200120149050919050565b82805461092990611189565b90600052602060002090601f01602090048101928261094b5760008555610992565b82601f1061096457805160ff1916838001178555610992565b82800160010185558215610992579182015b82811115610991578251825591602001919060010190610976565b5b50905061099f91906109a3565b5090565b5b808211156109bc5760008160009055506001016109a4565b5090565b60006109d36109ce84611042565b611011565b9050828152602081018484840111156109eb57600080fd5b6109f6848285611147565b509392505050565b600082601f830112610a0f57600080fd5b8135610a1f8482602086016109c0565b91505092915050565b600081359050610a37816112a2565b92915050565b600060208284031215610a4f57600080fd5b600082013567ffffffffffffffff811115610a6957600080fd5b610a75848285016109fe565b91505092915050565b60008060408385031215610a9157600080fd5b600083013567ffffffffffffffff811115610aab57600080fd5b610ab7858286016109fe565b925050602083013567ffffffffffffffff811115610ad457600080fd5b610ae0858286016109fe565b9150509250929050565b600060208284031215610afc57600080fd5b6000610b0a84828501610a28565b91505092915050565b60008060408385031215610b2657600080fd5b6000610b3485828601610a28565b925050602083013567ffffffffffffffff811115610b5157600080fd5b610b5d858286016109fe565b9150509250929050565b6000610b738383610c88565b905092915050565b6000610b878383610e6a565b905092915050565b6000610b9a826110a7565b610ba481856110e2565b935083602082028501610bb685611072565b8060005b85811015610bf25784840389528151610bd38582610b67565b9450610bde836110c8565b925060208a01995050600181019050610bba565b50829750879550505050505092915050565b6000610c0f826110b2565b610c1981856110f3565b935083602082028501610c2b85611082565b8060005b85811015610c675784840389528151610c488582610b7b565b9450610c53836110d5565b925060208a01995050600181019050610c2f565b50829750879550505050505092915050565b610c8281611131565b82525050565b6000610c93826110bd565b610c9d8185611104565b9350610cad818560208601611156565b610cb681611291565b840191505092915050565b6000610ccc826110bd565b610cd68185611115565b9350610ce6818560208601611156565b610cef81611291565b840191505092915050565b6000610d05826110bd565b610d0f8185611126565b9350610d1f818560208601611156565b80840191505092915050565b60008154610d3881611189565b610d428186611126565b94506001821660008114610d5d5760018114610d6e57610da1565b60ff19831686528186019350610da1565b610d7785611092565b60005b83811015610d9957815481890152600182019150602081019050610d7a565b838801955050505b50505092915050565b6000610db7601183611115565b91507f436f646520616c726561647920757365640000000000000000000000000000006000830152602082019050919050565b6000610df7601483611115565b91507f496e76616c69642063616e6469646174652049440000000000000000000000006000830152602082019050919050565b6000610e37601383611115565b91507f436f646520646f6573206e6f74206578697374000000000000000000000000006000830152602082019050919050565b60006060830160008301518482036000860152610e878282610c88565b91505060208301518482036020860152610ea18282610c88565b9150506040830151610eb66040860182610ec1565b508091505092915050565b610eca8161113d565b82525050565b610ed98161113d565b82525050565b6000610eeb8284610cfa565b915081905092915050565b6000610f028284610d2b565b915081905092915050565b60006020820190508181036000830152610f278184610b8f565b905092915050565b60006020820190508181036000830152610f498184610c04565b905092915050565b6000602082019050610f666000830184610c79565b92915050565b60006060820190508181036000830152610f868186610cc1565b90508181036020830152610f9a8185610cc1565b9050610fa96040830184610ed0565b949350505050565b60006020820190508181036000830152610fca81610daa565b9050919050565b60006020820190508181036000830152610fea81610dea565b9050919050565b6000602082019050818103600083015261100a81610e2a565b9050919050565b6000604051905081810181811067ffffffffffffffff8211171561103857611037611262565b5b8060405250919050565b600067ffffffffffffffff82111561105d5761105c611262565b5b601f19601f8301169050602081019050919050565b6000819050602082019050919050565b6000819050602082019050919050565b60008190508160005260206000209050919050565b600081519050919050565b600081519050919050565b600081519050919050565b6000602082019050919050565b6000602082019050919050565b600082825260208201905092915050565b600082825260208201905092915050565b600082825260208201905092915050565b600082825260208201905092915050565b600081905092915050565b60008115159050919050565b6000819050919050565b82818337600083830152505050565b60005b83811015611174578082015181840152602081019050611159565b83811115611183576000848401525b50505050565b600060028204905060018216806111a157607f821691505b602082108114156111b5576111b4611233565b5b50919050565b60006111c68261113d565b91507fffffffffffffffffffffffffffffffffffffffffffffffffffffffffffffffff8214156111f9576111f8611204565b5b600182019050919050565b7f4e487b7100000000000000000000000000000000000000000000000000000000600052601160045260246000fd5b7f4e487b7100000000000000000000000000000000000000000000000000000000600052602260045260246000fd5b7f4e487b7100000000000000000000000000000000000000000000000000000000600052604160045260246000fd5b6000601f19601f8301169050919050565b6112ab8161113d565b81146112b657600080fd5b5056fea26469706673582212207fcc7775a47ef539475418c98c3c7d5ca3639e1b17c65fd437b14f338e97cec564736f6c63430008000033",
  "immutableReferences": {},
  "source": "// SPDX-License-Identifier: MIT\r\npragma solidity ^0.8.0;\r\n\r\ncontract Voting {\r\n    struct Candidate {\r\n        string name;\r\n        string ipfsHash;\r\n        uint256 voteCount;\r\n    }\r\n\r\n    Candidate[] public candidates;\r\n    string[] private validCodes;\r\n    mapping(string => bool) public usedCodes;\r\n    string private adminCode;\r\n\r\n    modifier onlyAdmin(string memory code) {\r\n        require(keccak256(abi.encodePacked(code)) == keccak256(abi.encodePacked(adminCode)), \"Invalid code\");\r\n        _;\r\n    }\r\n\r\n    constructor(string memory _adminCode, string[] memory _validCodes) {\r\n        adminCode = _adminCode;\r\n        validCodes = _validCodes;\r\n    }\r\n\r\n    function addCandidate(string memory name, string memory ipfsHash) public {\r\n        candidates.push(Candidate(name, ipfsHash, 0));\r\n    }\r\n\r\n    function vote(uint256 candidateId, string memory code) public {\r\n        require(candidateId < candidates.length, \"Invalid candidate ID\");\r\n\r\n        bool codeExists = false;\r\n        for (uint256 i = 0; i < validCodes.length; i++) {\r\n            if (keccak256(abi.encodePacked(validCodes[i])) == keccak256(abi.encodePacked(code))) {\r\n                codeExists = true;\r\n                break;\r\n            }\r\n        }\r\n        require(codeExists, \"Code does not exist\");\r\n\r\n        require(!usedCodes[code], \"Code already used\");\r\n\r\n        usedCodes[code] = true;\r\n        candidates[candidateId].voteCount++;\r\n    }\r\n\r\n    function getCandidates() public view returns (Candidate[] memory) {\r\n        return candidates;\r\n    }\r\n\r\n    function isCodeUsed(string memory code) public view returns (bool) {\r\n        return usedCodes[code];\r\n    }\r\n\r\n    function getValidCodes() public view returns (string[] memory) {\r\n        return validCodes;\r\n    }\r\n\r\n    function checkAdminCode(string memory code) public view returns (bool) {\r\n        return keccak256(abi.encodePacked(code)) == keccak256(abi.encodePacked(adminCode));\r\n    }\r\n\r\n    \r\n}\r\n",
  "sourcePath": "C:\\Users\\plato\\Desktop\\blockchain-voting-system\\back\\contracts\\Voting.sol",
  "compiler": {
    "name": "solc",
    "version": "0.8.0+commit.c7dfd78e.Emscripten.clang"
  },
  "schemaVersion": "3.4.16",
  "updatedAt": "2025-03-03T13:52:31.939Z",
  "networkType": "ethereum",
  "devdoc": {
    "kind": "dev",
    "methods": {},
    "version": 1
  },
  "userdoc": {
    "kind": "user",
    "methods": {},
    "version": 1
  }
}