{
  "contractName": "Voting",
  "abi": [
    {
      "inputs": [
        {
          "internalType": "string[]",
          "name": "_validCodes",
          "type": "string[]"
        }
      ],
      "stateMutability": "nonpayable",
      "type": "constructor"
    },
    {
      "inputs": [
        {
          "internalType": "uint256",
          "name": "",
          "type": "uint256"
        }
      ],
      "name": "candidates",
      "outputs": [
        {
          "internalType": "string",
          "name": "name",
          "type": "string"
        },
        {
          "internalType": "uint256",
          "name": "voteCount",
          "type": "uint256"
        }
      ],
      "stateMutability": "view",
      "type": "function",
      "constant": true
    },
    {
      "inputs": [
        {
          "internalType": "string",
          "name": "",
          "type": "string"
        }
      ],
      "name": "usedCodes",
      "outputs": [
        {
          "internalType": "bool",
          "name": "",
          "type": "bool"
        }
      ],
      "stateMutability": "view",
      "type": "function",
      "constant": true
    },
    {
      "inputs": [
        {
          "internalType": "string",
          "name": "name",
          "type": "string"
        }
      ],
      "name": "addCandidate",
      "outputs": [],
      "stateMutability": "nonpayable",
      "type": "function"
    },
    {
      "inputs": [
        {
          "internalType": "uint256",
          "name": "candidateId",
          "type": "uint256"
        },
        {
          "internalType": "string",
          "name": "code",
          "type": "string"
        }
      ],
      "name": "vote",
      "outputs": [],
      "stateMutability": "nonpayable",
      "type": "function"
    },
    {
      "inputs": [],
      "name": "getCandidates",
      "outputs": [
        {
          "components": [
            {
              "internalType": "string",
              "name": "name",
              "type": "string"
            },
            {
              "internalType": "uint256",
              "name": "voteCount",
              "type": "uint256"
            }
          ],
          "internalType": "struct Voting.Candidate[]",
          "name": "",
          "type": "tuple[]"
        }
      ],
      "stateMutability": "view",
      "type": "function",
      "constant": true
    },
    {
      "inputs": [
        {
          "internalType": "string",
          "name": "code",
          "type": "string"
        }
      ],
      "name": "isCodeUsed",
      "outputs": [
        {
          "internalType": "bool",
          "name": "",
          "type": "bool"
        }
      ],
      "stateMutability": "view",
      "type": "function",
      "constant": true
    },
    {
      "inputs": [
        {
          "internalType": "string",
          "name": "code",
          "type": "string"
        }
      ],
      "name": "isValidCode",
      "outputs": [
        {
          "internalType": "bool",
          "name": "",
          "type": "bool"
        }
      ],
      "stateMutability": "view",
      "type": "function",
      "constant": true
    },
    {
      "inputs": [],
      "name": "getValidCodes",
      "outputs": [
        {
          "internalType": "string[]",
          "name": "",
          "type": "string[]"
        }
      ],
      "stateMutability": "view",
      "type": "function",
      "constant": true
    }
  ],
  "bytecode": "0x60806040523480156200001157600080fd5b5060405162001561380380620015618339818101604052810190620000379190620002e0565b80600190805190602001906200004f92919062000057565b505062000485565b828054828255906000526020600020908101928215620000ab579160200282015b82811115620000aa57825182908051906020019062000099929190620000be565b509160200191906001019062000078565b5b509050620000ba91906200014f565b5090565b828054620000cc90620003f1565b90600052602060002090601f016020900481019282620000f057600085556200013c565b82601f106200010b57805160ff19168380011785556200013c565b828001600101855582156200013c579182015b828111156200013b5782518255916020019190600101906200011e565b5b5090506200014b919062000177565b5090565b5b8082111562000173576000818162000169919062000196565b5060010162000150565b5090565b5b808211156200019257600081600090555060010162000178565b5090565b508054620001a490620003f1565b6000825580601f10620001b85750620001d9565b601f016020900490600052602060002090810190620001d8919062000177565b5b50565b6000620001f3620001ed8462000359565b62000325565b9050808382526020820190508260005b858110156200023757815185016200021c8882620002b3565b84526020840193506020830192505060018101905062000203565b5050509392505050565b600062000258620002528462000388565b62000325565b9050828152602081018484840111156200027157600080fd5b6200027e848285620003bb565b509392505050565b600082601f8301126200029857600080fd5b8151620002aa848260208601620001dc565b91505092915050565b600082601f830112620002c557600080fd5b8151620002d784826020860162000241565b91505092915050565b600060208284031215620002f357600080fd5b600082015167ffffffffffffffff8111156200030e57600080fd5b6200031c8482850162000286565b91505092915050565b6000604051905081810181811067ffffffffffffffff821117156200034f576200034e62000456565b5b8060405250919050565b600067ffffffffffffffff82111562000377576200037662000456565b5b602082029050602081019050919050565b600067ffffffffffffffff821115620003a657620003a562000456565b5b601f19601f8301169050602081019050919050565b60005b83811015620003db578082015181840152602081019050620003be565b83811115620003eb576000848401525b50505050565b600060028204905060018216806200040a57607f821691505b6020821081141562000421576200042062000427565b5b50919050565b7f4e487b7100000000000000000000000000000000000000000000000000000000600052602260045260246000fd5b7f4e487b7100000000000000000000000000000000000000000000000000000000600052604160045260246000fd5b6110cc80620004956000396000f3fe608060405234801561001057600080fd5b50600436106100885760003560e01c80633477ee2e1161005b5780633477ee2e14610127578063462e91ec146101585780635498453d1461017457806374d3e5ef146101a457610088565b806306a49fce1461008d57806317ed9c7c146100ab57806324108475146100db57806325ed64a0146100f7575b600080fd5b6100956101c2565b6040516100a29190610d21565b60405180910390f35b6100c560048036038101906100c091906108b5565b6102bd565b6040516100d29190610d43565b60405180910390f35b6100f560048036038101906100f0919061091f565b6102f3565b005b610111600480360381019061010c91906108b5565b61048a565b60405161011e9190610d43565b60405180910390f35b610141600480360381019061013c91906108f6565b61055e565b60405161014f929190610d5e565b60405180910390f35b610172600480360381019061016d91906108b5565b61061a565b005b61018e600480360381019061018991906108b5565b610687565b60405161019b9190610d43565b60405180910390f35b6101ac6106bc565b6040516101b99190610cff565b60405180910390f35b60606000805480602002602001604051908101604052809291908181526020016000905b828210156102b4578382906000526020600020906002020160405180604001604052908160008201805461021990610f66565b80601f016020809104026020016040519081016040528092919081815260200182805461024590610f66565b80156102925780601f1061026757610100808354040283529160200191610292565b820191906000526020600020905b81548152906001019060200180831161027557829003601f168201915b50505050508152602001600182015481525050815260200190600101906101e6565b50505050905090565b6002818051602081018201805184825260208301602085012081835280955050505050506000915054906101000a900460ff1681565b600080549050821061033a576040517f08c379a000000000000000000000000000000000000000000000000000000000815260040161033190610d8e565b60405180910390fd5b6103438161048a565b610382576040517f08c379a000000000000000000000000000000000000000000000000000000000815260040161037990610dae565b60405180910390fd5b6002816040516103929190610cd1565b908152602001604051809103902060009054906101000a900460ff16156103ee576040517f08c379a00000000000000000000000000000000000000000000000000000000081526004016103e590610dce565b60405180910390fd5b60016002826040516104009190610cd1565b908152602001604051809103902060006101000a81548160ff0219169083151502179055506000828154811061045f577f4e487b7100000000000000000000000000000000000000000000000000000000600052603260045260246000fd5b9060005260206000209060020201600101600081548092919061048190610f98565b91905055505050565b600080600090505b60018054905081101561055357826040516020016104b09190610cd1565b6040516020818303038152906040528051906020012060018281548110610500577f4e487b7100000000000000000000000000000000000000000000000000000000600052603260045260246000fd5b9060005260206000200160405160200161051a9190610ce8565b604051602081830303815290604052805190602001201415610540576001915050610559565b808061054b90610f98565b915050610492565b50600090505b919050565b6000818154811061056e57600080fd5b906000526020600020906002020160009150905080600001805461059190610f66565b80601f01602080910402602001604051908101604052809291908181526020018280546105bd90610f66565b801561060a5780601f106105df5761010080835404028352916020019161060a565b820191906000526020600020905b8154815290600101906020018083116105ed57829003601f168201915b5050505050908060010154905082565b60006040518060400160405280838152602001600081525090806001815401808255809150506001900390600052602060002090600202016000909190919091506000820151816000019080519060200190610677929190610795565b5060208201518160010155505050565b60006002826040516106999190610cd1565b908152602001604051809103902060009054906101000a900460ff169050919050565b60606001805480602002602001604051908101604052809291908181526020016000905b8282101561078c5783829060005260206000200180546106ff90610f66565b80601f016020809104026020016040519081016040528092919081815260200182805461072b90610f66565b80156107785780601f1061074d57610100808354040283529160200191610778565b820191906000526020600020905b81548152906001019060200180831161075b57829003601f168201915b5050505050815260200190600101906106e0565b50505050905090565b8280546107a190610f66565b90600052602060002090601f0160209004810192826107c3576000855561080a565b82601f106107dc57805160ff191683800117855561080a565b8280016001018555821561080a579182015b828111156108095782518255916020019190600101906107ee565b5b509050610817919061081b565b5090565b5b8082111561083457600081600090555060010161081c565b5090565b600061084b61084684610e1f565b610dee565b90508281526020810184848401111561086357600080fd5b61086e848285610f24565b509392505050565b600082601f83011261088757600080fd5b8135610897848260208601610838565b91505092915050565b6000813590506108af8161107f565b92915050565b6000602082840312156108c757600080fd5b600082013567ffffffffffffffff8111156108e157600080fd5b6108ed84828501610876565b91505092915050565b60006020828403121561090857600080fd5b6000610916848285016108a0565b91505092915050565b6000806040838503121561093257600080fd5b6000610940858286016108a0565b925050602083013567ffffffffffffffff81111561095d57600080fd5b61096985828601610876565b9150509250929050565b600061097f8383610a94565b905092915050565b60006109938383610c76565b905092915050565b60006109a682610e84565b6109b08185610ebf565b9350836020820285016109c285610e4f565b8060005b858110156109fe57848403895281516109df8582610973565b94506109ea83610ea5565b925060208a019950506001810190506109c6565b50829750879550505050505092915050565b6000610a1b82610e8f565b610a258185610ed0565b935083602082028501610a3785610e5f565b8060005b85811015610a735784840389528151610a548582610987565b9450610a5f83610eb2565b925060208a01995050600181019050610a3b565b50829750879550505050505092915050565b610a8e81610f0e565b82525050565b6000610a9f82610e9a565b610aa98185610ee1565b9350610ab9818560208601610f33565b610ac28161106e565b840191505092915050565b6000610ad882610e9a565b610ae28185610ef2565b9350610af2818560208601610f33565b610afb8161106e565b840191505092915050565b6000610b1182610e9a565b610b1b8185610f03565b9350610b2b818560208601610f33565b80840191505092915050565b60008154610b4481610f66565b610b4e8186610f03565b94506001821660008114610b695760018114610b7a57610bad565b60ff19831686528186019350610bad565b610b8385610e6f565b60005b83811015610ba557815481890152600182019150602081019050610b86565b838801955050505b50505092915050565b6000610bc3601483610ef2565b91507f496e76616c69642063616e6469646174652049440000000000000000000000006000830152602082019050919050565b6000610c03601183610ef2565b91507f436f6465206973206e6f742076616c69640000000000000000000000000000006000830152602082019050919050565b6000610c43601a83610ef2565b91507f436f64652068617320616c7265616479206265656e20757365640000000000006000830152602082019050919050565b60006040830160008301518482036000860152610c938282610a94565b9150506020830151610ca86020860182610cb3565b508091505092915050565b610cbc81610f1a565b82525050565b610ccb81610f1a565b82525050565b6000610cdd8284610b06565b915081905092915050565b6000610cf48284610b37565b915081905092915050565b60006020820190508181036000830152610d19818461099b565b905092915050565b60006020820190508181036000830152610d3b8184610a10565b905092915050565b6000602082019050610d586000830184610a85565b92915050565b60006040820190508181036000830152610d788185610acd565b9050610d876020830184610cc2565b9392505050565b60006020820190508181036000830152610da781610bb6565b9050919050565b60006020820190508181036000830152610dc781610bf6565b9050919050565b60006020820190508181036000830152610de781610c36565b9050919050565b6000604051905081810181811067ffffffffffffffff82111715610e1557610e1461103f565b5b8060405250919050565b600067ffffffffffffffff821115610e3a57610e3961103f565b5b601f19601f8301169050602081019050919050565b6000819050602082019050919050565b6000819050602082019050919050565b60008190508160005260206000209050919050565b600081519050919050565b600081519050919050565b600081519050919050565b6000602082019050919050565b6000602082019050919050565b600082825260208201905092915050565b600082825260208201905092915050565b600082825260208201905092915050565b600082825260208201905092915050565b600081905092915050565b60008115159050919050565b6000819050919050565b82818337600083830152505050565b60005b83811015610f51578082015181840152602081019050610f36565b83811115610f60576000848401525b50505050565b60006002820490506001821680610f7e57607f821691505b60208210811415610f9257610f91611010565b5b50919050565b6000610fa382610f1a565b91507fffffffffffffffffffffffffffffffffffffffffffffffffffffffffffffffff821415610fd657610fd5610fe1565b5b600182019050919050565b7f4e487b7100000000000000000000000000000000000000000000000000000000600052601160045260246000fd5b7f4e487b7100000000000000000000000000000000000000000000000000000000600052602260045260246000fd5b7f4e487b7100000000000000000000000000000000000000000000000000000000600052604160045260246000fd5b6000601f19601f8301169050919050565b61108881610f1a565b811461109357600080fd5b5056fea264697066735822122009ac7dbd8fb940f5b5ec04288425a317cc9341def3961306272f64dec664f00664736f6c63430008000033",
  "immutableReferences": {},
  "source": "// SPDX-License-Identifier: MIT\r\npragma solidity ^0.8.0;\r\n\r\ncontract Voting {\r\n    struct Candidate {\r\n        string name;\r\n        uint256 voteCount;\r\n    }\r\n\r\n    Candidate[] public candidates;\r\n\r\n    //   \r\n    string[] private validCodes;\r\n\r\n    //   \r\n    mapping(string => bool) public usedCodes;\r\n\r\n    constructor(string[] memory _validCodes) {\r\n        validCodes = _validCodes;\r\n    }\r\n\r\n    function addCandidate(string memory name) public {\r\n        candidates.push(Candidate(name, 0));\r\n    }\r\n\r\n    function vote(uint256 candidateId, string memory code) public {\r\n        require(candidateId < candidates.length, \"Invalid candidate ID\");\r\n        require(isValidCode(code), \"Code is not valid\");\r\n        require(!usedCodes[code], \"Code has already been used\");\r\n\r\n        usedCodes[code] = true;\r\n        candidates[candidateId].voteCount++;\r\n    }\r\n\r\n    function getCandidates() public view returns (Candidate[] memory) {\r\n        return candidates;\r\n    }\r\n\r\n    function isCodeUsed(string memory code) public view returns (bool) {\r\n        return usedCodes[code];\r\n    }\r\n\r\n    function isValidCode(string memory code) public view returns (bool) {\r\n        for (uint256 i = 0; i < validCodes.length; i++) {\r\n            if (keccak256(abi.encodePacked(validCodes[i])) == keccak256(abi.encodePacked(code))) {\r\n                return true;\r\n            }\r\n        }\r\n        return false;\r\n    }\r\n\r\n    function getValidCodes() public view returns (string[] memory) {\r\n        return validCodes;\r\n    }\r\n}\r\n",
  "sourcePath": "C:\\Users\\plato\\Desktop\\block\\back\\contracts\\Voting.sol",
  "compiler": {
    "name": "solc",
    "version": "0.8.0+commit.c7dfd78e.Emscripten.clang"
  },
  "schemaVersion": "3.4.16",
  "updatedAt": "2025-02-18T19:43:21.492Z",
  "networkType": "ethereum",
  "devdoc": {
    "kind": "dev",
    "methods": {},
    "version": 1
  },
  "userdoc": {
    "kind": "user",
    "methods": {},
    "version": 1
  }
}