{
  "contractName": "Voting",
  "abi": [
    {
      "inputs": [
        {
          "internalType": "uint256",
          "name": "",
          "type": "uint256"
        }
      ],
      "name": "candidates",
      "outputs": [
        {
          "internalType": "string",
          "name": "name",
          "type": "string"
        },
        {
          "internalType": "uint256",
          "name": "voteCount",
          "type": "uint256"
        }
      ],
      "stateMutability": "view",
      "type": "function",
      "constant": true
    },
    {
      "inputs": [
        {
          "internalType": "uint256",
          "name": "",
          "type": "uint256"
        }
      ],
      "name": "usedCodes",
      "outputs": [
        {
          "internalType": "bool",
          "name": "",
          "type": "bool"
        }
      ],
      "stateMutability": "view",
      "type": "function",
      "constant": true
    },
    {
      "inputs": [
        {
          "internalType": "string",
          "name": "name",
          "type": "string"
        }
      ],
      "name": "addCandidate",
      "outputs": [],
      "stateMutability": "nonpayable",
      "type": "function"
    },
    {
      "inputs": [
        {
          "internalType": "uint256",
          "name": "candidateId",
          "type": "uint256"
        },
        {
          "internalType": "uint256",
          "name": "uniqueCode",
          "type": "uint256"
        }
      ],
      "name": "vote",
      "outputs": [],
      "stateMutability": "nonpayable",
      "type": "function"
    },
    {
      "inputs": [],
      "name": "getCandidates",
      "outputs": [
        {
          "components": [
            {
              "internalType": "string",
              "name": "name",
              "type": "string"
            },
            {
              "internalType": "uint256",
              "name": "voteCount",
              "type": "uint256"
            }
          ],
          "internalType": "struct Voting.Candidate[]",
          "name": "",
          "type": "tuple[]"
        }
      ],
      "stateMutability": "view",
      "type": "function",
      "constant": true
    },
    {
      "inputs": [
        {
          "internalType": "uint256",
          "name": "uniqueCode",
          "type": "uint256"
        }
      ],
      "name": "isCodeUsed",
      "outputs": [
        {
          "internalType": "bool",
          "name": "",
          "type": "bool"
        }
      ],
      "stateMutability": "view",
      "type": "function",
      "constant": true
    }
  ],
  "bytecode": "0x608060405234801561001057600080fd5b50610bd1806100206000396000f3fe608060405234801561001057600080fd5b50600436106100625760003560e01c806306a49fce146100675780630a66834d146100855780633477ee2e146100b5578063462e91ec146100e6578063a3d36a1414610102578063b384abef14610132575b600080fd5b61006f61014e565b60405161007c919061089f565b60405180910390f35b61009f600480360381019061009a9190610655565b610249565b6040516100ac91906108c1565b60405180910390f35b6100cf60048036038101906100ca9190610655565b610273565b6040516100dd9291906108dc565b60405180910390f35b61010060048036038101906100fb9190610614565b61032f565b005b61011c60048036038101906101179190610655565b61039c565b60405161012991906108c1565b60405180910390f35b61014c6004803603810190610147919061067e565b6103bc565b005b60606000805480602002602001604051908101604052809291908181526020016000905b8282101561024057838290600052602060002090600202016040518060400160405290816000820180546101a590610a6b565b80601f01602080910402602001604051908101604052809291908181526020018280546101d190610a6b565b801561021e5780601f106101f35761010080835404028352916020019161021e565b820191906000526020600020905b81548152906001019060200180831161020157829003601f168201915b5050505050815260200160018201548152505081526020019060010190610172565b50505050905090565b60006001600083815260200190815260200160002060009054906101000a900460ff169050919050565b6000818154811061028357600080fd5b90600052602060002090600202016000915090508060000180546102a690610a6b565b80601f01602080910402602001604051908101604052809291908181526020018280546102d290610a6b565b801561031f5780601f106102f45761010080835404028352916020019161031f565b820191906000526020600020905b81548152906001019060200180831161030257829003601f168201915b5050505050908060010154905082565b6000604051806040016040528083815260200160008152509080600181540180825580915050600190039060005260206000209060020201600090919091909150600082015181600001908051906020019061038c9291906104f4565b5060208201518160010155505050565b60016020528060005260406000206000915054906101000a900460ff1681565b6000805490508210610403576040517f08c379a00000000000000000000000000000000000000000000000000000000081526004016103fa9061092c565b60405180910390fd5b6001600082815260200190815260200160002060009054906101000a900460ff1615610464576040517f08c379a000000000000000000000000000000000000000000000000000000000815260040161045b9061090c565b60405180910390fd5b6000828154811061049e577f4e487b7100000000000000000000000000000000000000000000000000000000600052603260045260246000fd5b906000526020600020906002020160010160008154809291906104c090610a9d565b9190505550600180600083815260200190815260200160002060006101000a81548160ff0219169083151502179055505050565b82805461050090610a6b565b90600052602060002090601f0160209004810192826105225760008555610569565b82601f1061053b57805160ff1916838001178555610569565b82800160010185558215610569579182015b8281111561056857825182559160200191906001019061054d565b5b509050610576919061057a565b5090565b5b8082111561059357600081600090555060010161057b565b5090565b60006105aa6105a58461097d565b61094c565b9050828152602081018484840111156105c257600080fd5b6105cd848285610a29565b509392505050565b600082601f8301126105e657600080fd5b81356105f6848260208601610597565b91505092915050565b60008135905061060e81610b84565b92915050565b60006020828403121561062657600080fd5b600082013567ffffffffffffffff81111561064057600080fd5b61064c848285016105d5565b91505092915050565b60006020828403121561066757600080fd5b6000610675848285016105ff565b91505092915050565b6000806040838503121561069157600080fd5b600061069f858286016105ff565b92505060206106b0858286016105ff565b9150509250929050565b60006106c68383610844565b905092915050565b60006106d9826109bd565b6106e381856109e0565b9350836020820285016106f5856109ad565b8060005b85811015610731578484038952815161071285826106ba565b945061071d836109d3565b925060208a019950506001810190506106f9565b50829750879550505050505092915050565b61074c81610a13565b82525050565b600061075d826109c8565b61076781856109f1565b9350610777818560208601610a38565b61078081610b73565b840191505092915050565b6000610796826109c8565b6107a08185610a02565b93506107b0818560208601610a38565b6107b981610b73565b840191505092915050565b60006107d1601183610a02565b91507f436f646520616c726561647920757365640000000000000000000000000000006000830152602082019050919050565b6000610811601483610a02565b91507f496e76616c69642063616e6469646174652049440000000000000000000000006000830152602082019050919050565b600060408301600083015184820360008601526108618282610752565b91505060208301516108766020860182610881565b508091505092915050565b61088a81610a1f565b82525050565b61089981610a1f565b82525050565b600060208201905081810360008301526108b981846106ce565b905092915050565b60006020820190506108d66000830184610743565b92915050565b600060408201905081810360008301526108f6818561078b565b90506109056020830184610890565b9392505050565b60006020820190508181036000830152610925816107c4565b9050919050565b6000602082019050818103600083015261094581610804565b9050919050565b6000604051905081810181811067ffffffffffffffff8211171561097357610972610b44565b5b8060405250919050565b600067ffffffffffffffff82111561099857610997610b44565b5b601f19601f8301169050602081019050919050565b6000819050602082019050919050565b600081519050919050565b600081519050919050565b6000602082019050919050565b600082825260208201905092915050565b600082825260208201905092915050565b600082825260208201905092915050565b60008115159050919050565b6000819050919050565b82818337600083830152505050565b60005b83811015610a56578082015181840152602081019050610a3b565b83811115610a65576000848401525b50505050565b60006002820490506001821680610a8357607f821691505b60208210811415610a9757610a96610b15565b5b50919050565b6000610aa882610a1f565b91507fffffffffffffffffffffffffffffffffffffffffffffffffffffffffffffffff821415610adb57610ada610ae6565b5b600182019050919050565b7f4e487b7100000000000000000000000000000000000000000000000000000000600052601160045260246000fd5b7f4e487b7100000000000000000000000000000000000000000000000000000000600052602260045260246000fd5b7f4e487b7100000000000000000000000000000000000000000000000000000000600052604160045260246000fd5b6000601f19601f8301169050919050565b610b8d81610a1f565b8114610b9857600080fd5b5056fea26469706673582212201e384d5ea86069d55db8745067fc07722db5064d7642261236872cef19d05a4364736f6c63430008000033",
  "immutableReferences": {},
  "source": "// SPDX-License-Identifier: MIT\r\npragma solidity ^0.8.0;\r\n\r\ncontract Voting {\r\n    struct Candidate {\r\n        string name;\r\n        uint256 voteCount;\r\n    }\r\n\r\n    Candidate[] public candidates;\r\n    mapping(uint256 => bool) public usedCodes; // ,   \r\n\r\n    function addCandidate(string memory name) public {\r\n        candidates.push(Candidate(name, 0));\r\n    }\r\n\r\n    function vote(uint256 candidateId, uint256 uniqueCode) public {\r\n        require(candidateId < candidates.length, \"Invalid candidate ID\");\r\n        require(!usedCodes[uniqueCode], \"Code already used\");\r\n\r\n        candidates[candidateId].voteCount++;\r\n        usedCodes[uniqueCode] = true;\r\n    }\r\n\r\n    function getCandidates() public view returns (Candidate[] memory) {\r\n        return candidates;\r\n    }\r\n\r\n    function isCodeUsed(uint256 uniqueCode) public view returns (bool) {\r\n        return usedCodes[uniqueCode];\r\n    }\r\n}\r\n",
  "sourcePath": "C:\\Users\\plato\\Desktop\\block\\back\\contracts\\Voting.sol",
  "compiler": {
    "name": "solc",
    "version": "0.8.0+commit.c7dfd78e.Emscripten.clang"
  },
  "schemaVersion": "3.4.16",
  "updatedAt": "2025-02-16T21:09:07.206Z",
  "networkType": "ethereum",
  "devdoc": {
    "kind": "dev",
    "methods": {},
    "version": 1
  },
  "userdoc": {
    "kind": "user",
    "methods": {},
    "version": 1
  }
}