{
  "contractName": "Voting",
  "abi": [
    {
      "inputs": [
        {
          "internalType": "string[]",
          "name": "_validCodes",
          "type": "string[]"
        }
      ],
      "stateMutability": "nonpayable",
      "type": "constructor"
    },
    {
      "inputs": [
        {
          "internalType": "uint256",
          "name": "",
          "type": "uint256"
        }
      ],
      "name": "candidates",
      "outputs": [
        {
          "internalType": "string",
          "name": "name",
          "type": "string"
        },
        {
          "internalType": "uint256",
          "name": "voteCount",
          "type": "uint256"
        }
      ],
      "stateMutability": "view",
      "type": "function",
      "constant": true
    },
    {
      "inputs": [
        {
          "internalType": "string",
          "name": "",
          "type": "string"
        }
      ],
      "name": "usedCodes",
      "outputs": [
        {
          "internalType": "bool",
          "name": "",
          "type": "bool"
        }
      ],
      "stateMutability": "view",
      "type": "function",
      "constant": true
    },
    {
      "inputs": [
        {
          "internalType": "string",
          "name": "name",
          "type": "string"
        }
      ],
      "name": "addCandidate",
      "outputs": [],
      "stateMutability": "nonpayable",
      "type": "function"
    },
    {
      "inputs": [
        {
          "internalType": "uint256",
          "name": "candidateId",
          "type": "uint256"
        },
        {
          "internalType": "string",
          "name": "code",
          "type": "string"
        }
      ],
      "name": "vote",
      "outputs": [],
      "stateMutability": "nonpayable",
      "type": "function"
    },
    {
      "inputs": [],
      "name": "getCandidates",
      "outputs": [
        {
          "components": [
            {
              "internalType": "string",
              "name": "name",
              "type": "string"
            },
            {
              "internalType": "uint256",
              "name": "voteCount",
              "type": "uint256"
            }
          ],
          "internalType": "struct Voting.Candidate[]",
          "name": "",
          "type": "tuple[]"
        }
      ],
      "stateMutability": "view",
      "type": "function",
      "constant": true
    },
    {
      "inputs": [
        {
          "internalType": "string",
          "name": "code",
          "type": "string"
        }
      ],
      "name": "isCodeUsed",
      "outputs": [
        {
          "internalType": "bool",
          "name": "",
          "type": "bool"
        }
      ],
      "stateMutability": "view",
      "type": "function",
      "constant": true
    },
    {
      "inputs": [
        {
          "internalType": "string",
          "name": "code",
          "type": "string"
        }
      ],
      "name": "isValidCode",
      "outputs": [
        {
          "internalType": "bool",
          "name": "",
          "type": "bool"
        }
      ],
      "stateMutability": "view",
      "type": "function",
      "constant": true
    },
    {
      "inputs": [],
      "name": "getValidCodes",
      "outputs": [
        {
          "internalType": "string[]",
          "name": "",
          "type": "string[]"
        }
      ],
      "stateMutability": "view",
      "type": "function",
      "constant": true
    }
  ],
  "bytecode": "0x60806040523480156200001157600080fd5b506040516200161f3803806200161f8339818101604052810190620000379190620002e0565b80600190805190602001906200004f92919062000057565b505062000485565b828054828255906000526020600020908101928215620000ab579160200282015b82811115620000aa57825182908051906020019062000099929190620000be565b509160200191906001019062000078565b5b509050620000ba91906200014f565b5090565b828054620000cc90620003f1565b90600052602060002090601f016020900481019282620000f057600085556200013c565b82601f106200010b57805160ff19168380011785556200013c565b828001600101855582156200013c579182015b828111156200013b5782518255916020019190600101906200011e565b5b5090506200014b919062000177565b5090565b5b8082111562000173576000818162000169919062000196565b5060010162000150565b5090565b5b808211156200019257600081600090555060010162000178565b5090565b508054620001a490620003f1565b6000825580601f10620001b85750620001d9565b601f016020900490600052602060002090810190620001d8919062000177565b5b50565b6000620001f3620001ed8462000359565b62000325565b9050808382526020820190508260005b858110156200023757815185016200021c8882620002b3565b84526020840193506020830192505060018101905062000203565b5050509392505050565b600062000258620002528462000388565b62000325565b9050828152602081018484840111156200027157600080fd5b6200027e848285620003bb565b509392505050565b600082601f8301126200029857600080fd5b8151620002aa848260208601620001dc565b91505092915050565b600082601f830112620002c557600080fd5b8151620002d784826020860162000241565b91505092915050565b600060208284031215620002f357600080fd5b600082015167ffffffffffffffff8111156200030e57600080fd5b6200031c8482850162000286565b91505092915050565b6000604051905081810181811067ffffffffffffffff821117156200034f576200034e62000456565b5b8060405250919050565b600067ffffffffffffffff82111562000377576200037662000456565b5b602082029050602081019050919050565b600067ffffffffffffffff821115620003a657620003a562000456565b5b601f19601f8301169050602081019050919050565b60005b83811015620003db578082015181840152602081019050620003be565b83811115620003eb576000848401525b50505050565b600060028204905060018216806200040a57607f821691505b6020821081141562000421576200042062000427565b5b50919050565b7f4e487b7100000000000000000000000000000000000000000000000000000000600052602260045260246000fd5b7f4e487b7100000000000000000000000000000000000000000000000000000000600052604160045260246000fd5b61118a80620004956000396000f3fe608060405234801561001057600080fd5b50600436106100885760003560e01c80633477ee2e1161005b5780633477ee2e14610127578063462e91ec146101585780635498453d1461017457806374d3e5ef146101a457610088565b806306a49fce1461008d57806317ed9c7c146100ab57806324108475146100db57806325ed64a0146100f7575b600080fd5b6100956101c2565b6040516100a29190610ddf565b60405180910390f35b6100c560048036038101906100c09190610973565b6102bd565b6040516100d29190610e01565b60405180910390f35b6100f560048036038101906100f091906109dd565b6102f3565b005b610111600480360381019061010c9190610973565b610548565b60405161011e9190610e01565b60405180910390f35b610141600480360381019061013c91906109b4565b61061c565b60405161014f929190610e1c565b60405180910390f35b610172600480360381019061016d9190610973565b6106d8565b005b61018e60048036038101906101899190610973565b610745565b60405161019b9190610e01565b60405180910390f35b6101ac61077a565b6040516101b99190610dbd565b60405180910390f35b60606000805480602002602001604051908101604052809291908181526020016000905b828210156102b4578382906000526020600020906002020160405180604001604052908160008201805461021990611024565b80601f016020809104026020016040519081016040528092919081815260200182805461024590611024565b80156102925780601f1061026757610100808354040283529160200191610292565b820191906000526020600020905b81548152906001019060200180831161027557829003601f168201915b50505050508152602001600182015481525050815260200190600101906101e6565b50505050905090565b6002818051602081018201805184825260208301602085012081835280955050505050506000915054906101000a900460ff1681565b600080549050821061033a576040517f08c379a000000000000000000000000000000000000000000000000000000000815260040161033190610e6c565b60405180910390fd5b6000805b6001805490508110156103fe578260405160200161035c9190610d8f565b60405160208183030381529060405280519060200120600182815481106103ac577f4e487b7100000000000000000000000000000000000000000000000000000000600052603260045260246000fd5b906000526020600020016040516020016103c69190610da6565b6040516020818303038152906040528051906020012014156103eb57600191506103fe565b80806103f690611056565b91505061033e565b508061043f576040517f08c379a000000000000000000000000000000000000000000000000000000000815260040161043690610e8c565b60405180910390fd5b60028260405161044f9190610d8f565b908152602001604051809103902060009054906101000a900460ff16156104ab576040517f08c379a00000000000000000000000000000000000000000000000000000000081526004016104a290610e4c565b60405180910390fd5b60016002836040516104bd9190610d8f565b908152602001604051809103902060006101000a81548160ff0219169083151502179055506000838154811061051c577f4e487b7100000000000000000000000000000000000000000000000000000000600052603260045260246000fd5b9060005260206000209060020201600101600081548092919061053e90611056565b9190505550505050565b600080600090505b600180549050811015610611578260405160200161056e9190610d8f565b60405160208183030381529060405280519060200120600182815481106105be577f4e487b7100000000000000000000000000000000000000000000000000000000600052603260045260246000fd5b906000526020600020016040516020016105d89190610da6565b6040516020818303038152906040528051906020012014156105fe576001915050610617565b808061060990611056565b915050610550565b50600090505b919050565b6000818154811061062c57600080fd5b906000526020600020906002020160009150905080600001805461064f90611024565b80601f016020809104026020016040519081016040528092919081815260200182805461067b90611024565b80156106c85780601f1061069d576101008083540402835291602001916106c8565b820191906000526020600020905b8154815290600101906020018083116106ab57829003601f168201915b5050505050908060010154905082565b60006040518060400160405280838152602001600081525090806001815401808255809150506001900390600052602060002090600202016000909190919091506000820151816000019080519060200190610735929190610853565b5060208201518160010155505050565b60006002826040516107579190610d8f565b908152602001604051809103902060009054906101000a900460ff169050919050565b60606001805480602002602001604051908101604052809291908181526020016000905b8282101561084a5783829060005260206000200180546107bd90611024565b80601f01602080910402602001604051908101604052809291908181526020018280546107e990611024565b80156108365780601f1061080b57610100808354040283529160200191610836565b820191906000526020600020905b81548152906001019060200180831161081957829003601f168201915b50505050508152602001906001019061079e565b50505050905090565b82805461085f90611024565b90600052602060002090601f01602090048101928261088157600085556108c8565b82601f1061089a57805160ff19168380011785556108c8565b828001600101855582156108c8579182015b828111156108c75782518255916020019190600101906108ac565b5b5090506108d591906108d9565b5090565b5b808211156108f25760008160009055506001016108da565b5090565b600061090961090484610edd565b610eac565b90508281526020810184848401111561092157600080fd5b61092c848285610fe2565b509392505050565b600082601f83011261094557600080fd5b81356109558482602086016108f6565b91505092915050565b60008135905061096d8161113d565b92915050565b60006020828403121561098557600080fd5b600082013567ffffffffffffffff81111561099f57600080fd5b6109ab84828501610934565b91505092915050565b6000602082840312156109c657600080fd5b60006109d48482850161095e565b91505092915050565b600080604083850312156109f057600080fd5b60006109fe8582860161095e565b925050602083013567ffffffffffffffff811115610a1b57600080fd5b610a2785828601610934565b9150509250929050565b6000610a3d8383610b52565b905092915050565b6000610a518383610d34565b905092915050565b6000610a6482610f42565b610a6e8185610f7d565b935083602082028501610a8085610f0d565b8060005b85811015610abc5784840389528151610a9d8582610a31565b9450610aa883610f63565b925060208a01995050600181019050610a84565b50829750879550505050505092915050565b6000610ad982610f4d565b610ae38185610f8e565b935083602082028501610af585610f1d565b8060005b85811015610b315784840389528151610b128582610a45565b9450610b1d83610f70565b925060208a01995050600181019050610af9565b50829750879550505050505092915050565b610b4c81610fcc565b82525050565b6000610b5d82610f58565b610b678185610f9f565b9350610b77818560208601610ff1565b610b808161112c565b840191505092915050565b6000610b9682610f58565b610ba08185610fb0565b9350610bb0818560208601610ff1565b610bb98161112c565b840191505092915050565b6000610bcf82610f58565b610bd98185610fc1565b9350610be9818560208601610ff1565b80840191505092915050565b60008154610c0281611024565b610c0c8186610fc1565b94506001821660008114610c275760018114610c3857610c6b565b60ff19831686528186019350610c6b565b610c4185610f2d565b60005b83811015610c6357815481890152600182019150602081019050610c44565b838801955050505b50505092915050565b6000610c81601183610fb0565b91507f436f646520616c726561647920757365640000000000000000000000000000006000830152602082019050919050565b6000610cc1601483610fb0565b91507f496e76616c69642063616e6469646174652049440000000000000000000000006000830152602082019050919050565b6000610d01601383610fb0565b91507f436f646520646f6573206e6f74206578697374000000000000000000000000006000830152602082019050919050565b60006040830160008301518482036000860152610d518282610b52565b9150506020830151610d666020860182610d71565b508091505092915050565b610d7a81610fd8565b82525050565b610d8981610fd8565b82525050565b6000610d9b8284610bc4565b915081905092915050565b6000610db28284610bf5565b915081905092915050565b60006020820190508181036000830152610dd78184610a59565b905092915050565b60006020820190508181036000830152610df98184610ace565b905092915050565b6000602082019050610e166000830184610b43565b92915050565b60006040820190508181036000830152610e368185610b8b565b9050610e456020830184610d80565b9392505050565b60006020820190508181036000830152610e6581610c74565b9050919050565b60006020820190508181036000830152610e8581610cb4565b9050919050565b60006020820190508181036000830152610ea581610cf4565b9050919050565b6000604051905081810181811067ffffffffffffffff82111715610ed357610ed26110fd565b5b8060405250919050565b600067ffffffffffffffff821115610ef857610ef76110fd565b5b601f19601f8301169050602081019050919050565b6000819050602082019050919050565b6000819050602082019050919050565b60008190508160005260206000209050919050565b600081519050919050565b600081519050919050565b600081519050919050565b6000602082019050919050565b6000602082019050919050565b600082825260208201905092915050565b600082825260208201905092915050565b600082825260208201905092915050565b600082825260208201905092915050565b600081905092915050565b60008115159050919050565b6000819050919050565b82818337600083830152505050565b60005b8381101561100f578082015181840152602081019050610ff4565b8381111561101e576000848401525b50505050565b6000600282049050600182168061103c57607f821691505b602082108114156110505761104f6110ce565b5b50919050565b600061106182610fd8565b91507fffffffffffffffffffffffffffffffffffffffffffffffffffffffffffffffff8214156110945761109361109f565b5b600182019050919050565b7f4e487b7100000000000000000000000000000000000000000000000000000000600052601160045260246000fd5b7f4e487b7100000000000000000000000000000000000000000000000000000000600052602260045260246000fd5b7f4e487b7100000000000000000000000000000000000000000000000000000000600052604160045260246000fd5b6000601f19601f8301169050919050565b61114681610fd8565b811461115157600080fd5b5056fea264697066735822122013801ff352aac1846d55528efd43b10d0b068514568b2c25b2255e53442e9a1464736f6c63430008000033",
  "immutableReferences": {},
  "source": "// SPDX-License-Identifier: MIT\r\npragma solidity ^0.8.0;\r\n\r\ncontract Voting {\r\n    struct Candidate {\r\n        string name;\r\n        uint256 voteCount;\r\n    }\r\n\r\n    Candidate[] public candidates;\r\n\r\n    //   \r\n    string[] private validCodes;\r\n\r\n    //   \r\n    mapping(string => bool) public usedCodes;\r\n\r\n    constructor(string[] memory _validCodes) {\r\n        validCodes = _validCodes;\r\n    }\r\n\r\n    function addCandidate(string memory name) public {\r\n        candidates.push(Candidate(name, 0));\r\n    }\r\n\r\n    function vote(uint256 candidateId, string memory code) public {\r\n        require(candidateId < candidates.length, \"Invalid candidate ID\");\r\n\r\n        bool codeExists = false;\r\n        for (uint256 i = 0; i < validCodes.length; i++) {\r\n            if (keccak256(abi.encodePacked(validCodes[i])) == keccak256(abi.encodePacked(code))) {\r\n                codeExists = true;\r\n                break;\r\n            }\r\n        }\r\n        require(codeExists, \"Code does not exist\");\r\n\r\n        require(!usedCodes[code], \"Code already used\");\r\n\r\n        usedCodes[code] = true;\r\n        candidates[candidateId].voteCount++;\r\n    }\r\n\r\n    function getCandidates() public view returns (Candidate[] memory) {\r\n        return candidates;\r\n    }\r\n\r\n    function isCodeUsed(string memory code) public view returns (bool) {\r\n        return usedCodes[code];\r\n    }\r\n\r\n    function isValidCode(string memory code) public view returns (bool) {\r\n        for (uint256 i = 0; i < validCodes.length; i++) {\r\n            if (keccak256(abi.encodePacked(validCodes[i])) == keccak256(abi.encodePacked(code))) {\r\n                return true;\r\n            }\r\n        }\r\n        return false;\r\n    }\r\n\r\n    function getValidCodes() public view returns (string[] memory) {\r\n        return validCodes;\r\n    }\r\n}\r\n",
  "sourcePath": "C:\\Users\\plato\\Desktop\\block\\back\\contracts\\Voting.sol",
  "compiler": {
    "name": "solc",
    "version": "0.8.0+commit.c7dfd78e.Emscripten.clang"
  },
  "schemaVersion": "3.4.16",
  "updatedAt": "2025-02-18T20:21:56.861Z",
  "networkType": "ethereum",
  "devdoc": {
    "kind": "dev",
    "methods": {},
    "version": 1
  },
  "userdoc": {
    "kind": "user",
    "methods": {},
    "version": 1
  }
}