{
  "contractName": "Voting",
  "abi": [
    {
      "inputs": [
        {
          "internalType": "uint256",
          "name": "",
          "type": "uint256"
        }
      ],
      "name": "candidates",
      "outputs": [
        {
          "internalType": "string",
          "name": "name",
          "type": "string"
        },
        {
          "internalType": "uint256",
          "name": "voteCount",
          "type": "uint256"
        }
      ],
      "stateMutability": "view",
      "type": "function",
      "constant": true
    },
    {
      "inputs": [
        {
          "internalType": "string",
          "name": "name",
          "type": "string"
        }
      ],
      "name": "addCandidate",
      "outputs": [],
      "stateMutability": "nonpayable",
      "type": "function"
    },
    {
      "inputs": [
        {
          "internalType": "uint256",
          "name": "candidateId",
          "type": "uint256"
        }
      ],
      "name": "vote",
      "outputs": [],
      "stateMutability": "nonpayable",
      "type": "function"
    },
    {
      "inputs": [],
      "name": "getCandidates",
      "outputs": [
        {
          "components": [
            {
              "internalType": "string",
              "name": "name",
              "type": "string"
            },
            {
              "internalType": "uint256",
              "name": "voteCount",
              "type": "uint256"
            }
          ],
          "internalType": "struct Voting.Candidate[]",
          "name": "",
          "type": "tuple[]"
        }
      ],
      "stateMutability": "view",
      "type": "function",
      "constant": true
    }
  ],
  "bytecode": "0x608060405234801561001057600080fd5b506109b2806100206000396000f3fe608060405234801561001057600080fd5b506004361061004c5760003560e01c80630121b93f1461005157806306a49fce1461006d5780633477ee2e1461008b578063462e91ec146100bc575b600080fd5b61006b60048036038101906100669190610508565b6100d8565b005b610075610183565b60405161008291906106c7565b60405180910390f35b6100a560048036038101906100a09190610508565b61027e565b6040516100b39291906106e9565b60405180910390f35b6100d660048036038101906100d191906104c7565b61033a565b005b600080549050811061011f576040517f08c379a000000000000000000000000000000000000000000000000000000000815260040161011690610719565b60405180910390fd5b60008181548110610159577f4e487b7100000000000000000000000000000000000000000000000000000000600052603260045260246000fd5b9060005260206000209060020201600101600081548092919061017b9061087e565b919050555050565b60606000805480602002602001604051908101604052809291908181526020016000905b8282101561027557838290600052602060002090600202016040518060400160405290816000820180546101da9061084c565b80601f01602080910402602001604051908101604052809291908181526020018280546102069061084c565b80156102535780601f1061022857610100808354040283529160200191610253565b820191906000526020600020905b81548152906001019060200180831161023657829003601f168201915b50505050508152602001600182015481525050815260200190600101906101a7565b50505050905090565b6000818154811061028e57600080fd5b90600052602060002090600202016000915090508060000180546102b19061084c565b80601f01602080910402602001604051908101604052809291908181526020018280546102dd9061084c565b801561032a5780601f106102ff5761010080835404028352916020019161032a565b820191906000526020600020905b81548152906001019060200180831161030d57829003601f168201915b5050505050908060010154905082565b600060405180604001604052808381526020016000815250908060018154018082558091505060019003906000526020600020906002020160009091909190915060008201518160000190805190602001906103979291906103a7565b5060208201518160010155505050565b8280546103b39061084c565b90600052602060002090601f0160209004810192826103d5576000855561041c565b82601f106103ee57805160ff191683800117855561041c565b8280016001018555821561041c579182015b8281111561041b578251825591602001919060010190610400565b5b509050610429919061042d565b5090565b5b8082111561044657600081600090555060010161042e565b5090565b600061045d6104588461076a565b610739565b90508281526020810184848401111561047557600080fd5b61048084828561080a565b509392505050565b600082601f83011261049957600080fd5b81356104a984826020860161044a565b91505092915050565b6000813590506104c181610965565b92915050565b6000602082840312156104d957600080fd5b600082013567ffffffffffffffff8111156104f357600080fd5b6104ff84828501610488565b91505092915050565b60006020828403121561051a57600080fd5b6000610528848285016104b2565b91505092915050565b600061053d838361066c565b905092915050565b6000610550826107aa565b61055a81856107cd565b93508360208202850161056c8561079a565b8060005b858110156105a857848403895281516105898582610531565b9450610594836107c0565b925060208a01995050600181019050610570565b50829750879550505050505092915050565b60006105c5826107b5565b6105cf81856107de565b93506105df818560208601610819565b6105e881610954565b840191505092915050565b60006105fe826107b5565b61060881856107ef565b9350610618818560208601610819565b61062181610954565b840191505092915050565b60006106396014836107ef565b91507f496e76616c69642063616e6469646174652049440000000000000000000000006000830152602082019050919050565b6000604083016000830151848203600086015261068982826105ba565b915050602083015161069e60208601826106a9565b508091505092915050565b6106b281610800565b82525050565b6106c181610800565b82525050565b600060208201905081810360008301526106e18184610545565b905092915050565b6000604082019050818103600083015261070381856105f3565b905061071260208301846106b8565b9392505050565b600060208201905081810360008301526107328161062c565b9050919050565b6000604051905081810181811067ffffffffffffffff821117156107605761075f610925565b5b8060405250919050565b600067ffffffffffffffff82111561078557610784610925565b5b601f19601f8301169050602081019050919050565b6000819050602082019050919050565b600081519050919050565b600081519050919050565b6000602082019050919050565b600082825260208201905092915050565b600082825260208201905092915050565b600082825260208201905092915050565b6000819050919050565b82818337600083830152505050565b60005b8381101561083757808201518184015260208101905061081c565b83811115610846576000848401525b50505050565b6000600282049050600182168061086457607f821691505b60208210811415610878576108776108f6565b5b50919050565b600061088982610800565b91507fffffffffffffffffffffffffffffffffffffffffffffffffffffffffffffffff8214156108bc576108bb6108c7565b5b600182019050919050565b7f4e487b7100000000000000000000000000000000000000000000000000000000600052601160045260246000fd5b7f4e487b7100000000000000000000000000000000000000000000000000000000600052602260045260246000fd5b7f4e487b7100000000000000000000000000000000000000000000000000000000600052604160045260246000fd5b6000601f19601f8301169050919050565b61096e81610800565b811461097957600080fd5b5056fea2646970667358221220efa1a4fcaef882b687c90e4cefaa49b461097ab6482c1a0a502a8b2b8facb61f64736f6c63430008000033",
  "immutableReferences": {},
  "source": "// SPDX-License-Identifier: MIT\r\npragma solidity ^0.8.0;\r\n\r\ncontract Voting {\r\n    struct Candidate {\r\n        string name;\r\n        uint256 voteCount;\r\n    }\r\n\r\n    Candidate[] public candidates;\r\n\r\n    function addCandidate(string memory name) public {\r\n        candidates.push(Candidate(name, 0));\r\n    }\r\n\r\n    function vote(uint256 candidateId) public {\r\n        require(candidateId < candidates.length, \"Invalid candidate ID\");\r\n        candidates[candidateId].voteCount++;\r\n    }\r\n\r\n    function getCandidates() public view returns (Candidate[] memory) {\r\n        return candidates;\r\n    }\r\n}\r\n",
  "sourcePath": "C:\\Users\\plato\\Desktop\\block\\back\\contracts\\Voting.sol",
  "compiler": {
    "name": "solc",
    "version": "0.8.0+commit.c7dfd78e.Emscripten.clang"
  },
  "schemaVersion": "3.4.16",
  "updatedAt": "2025-01-07T19:08:00.522Z",
  "networkType": "ethereum",
  "devdoc": {
    "kind": "dev",
    "methods": {},
    "version": 1
  },
  "userdoc": {
    "kind": "user",
    "methods": {},
    "version": 1
  }
}